{
  "contractName": "CredentialStore",
  "abi": [
    {
      "inputs": [
        {
          "internalType": "string",
          "name": "id",
          "type": "string"
        },
        {
          "internalType": "string",
          "name": "data",
          "type": "string"
        }
      ],
      "name": "storeData",
      "outputs": [],
      "stateMutability": "nonpayable",
      "type": "function"
    },
    {
      "inputs": [
        {
          "internalType": "string",
          "name": "id",
          "type": "string"
        }
      ],
      "name": "getData",
      "outputs": [
        {
          "internalType": "string",
          "name": "",
          "type": "string"
        }
      ],
      "stateMutability": "view",
      "type": "function",
      "constant": true
    }
  ],
  "bytecode": "0x608060405234801561001057600080fd5b50610422806100206000396000f3fe608060405234801561001057600080fd5b50600436106100365760003560e01c80634ece5b4c1461003b578063ae55c88814610050575b600080fd5b61004e6100493660046102bb565b610079565b005b61006361005e366004610280565b6100b0565b6040516100709190610338565b60405180910390f35b8060008360405161008a919061031c565b908152602001604051809103902090805190602001906100ab929190610160565b505050565b60606000826040516100c2919061031c565b908152602001604051809103902080546100db9061039b565b80601f01602080910402602001604051908101604052809291908181526020018280546101079061039b565b80156101545780601f1061012957610100808354040283529160200191610154565b820191906000526020600020905b81548152906001019060200180831161013757829003601f168201915b50505050509050919050565b82805461016c9061039b565b90600052602060002090601f01602090048101928261018e57600085556101d4565b82601f106101a757805160ff19168380011785556101d4565b828001600101855582156101d4579182015b828111156101d45782518255916020019190600101906101b9565b506101e09291506101e4565b5090565b5b808211156101e057600081556001016101e5565b600082601f830112610209578081fd5b813567ffffffffffffffff80821115610224576102246103d6565b604051601f8301601f19908116603f0116810190828211818310171561024c5761024c6103d6565b81604052838152866020858801011115610264578485fd5b8360208701602083013792830160200193909352509392505050565b600060208284031215610291578081fd5b813567ffffffffffffffff8111156102a7578182fd5b6102b3848285016101f9565b949350505050565b600080604083850312156102cd578081fd5b823567ffffffffffffffff808211156102e4578283fd5b6102f0868387016101f9565b93506020850135915080821115610305578283fd5b50610312858286016101f9565b9150509250929050565b6000825161032e81846020870161036b565b9190910192915050565b602081526000825180602084015261035781604085016020870161036b565b601f01601f19169190910160400192915050565b60005b8381101561038657818101518382015260200161036e565b83811115610395576000848401525b50505050565b600181811c908216806103af57607f821691505b602082108114156103d057634e487b7160e01b600052602260045260246000fd5b50919050565b634e487b7160e01b600052604160045260246000fdfea26469706673582212207628c30868aa90d08147ad372a6b299ada2460452d486b58fd777d0c5b8a2e2d64736f6c63430008040033",
  "immutableReferences": {},
  "source": "// SPDX-License-Identifier: MIT\npragma solidity 0.8.4;\n\ncontract CredentialStore {\n    mapping(string => string) private dataStore;\n    \n    function storeData(string memory id, string memory data) public {\n        dataStore[id] = data;\n    }\n    \n    function getData(string memory id) public view returns (string memory) {\n        return dataStore[id];\n    }\n}",
  "sourcePath": "/Users/pravingotmare/Desktop/project/aries-ethereum-bridge/smart contracts/contracts/CredentialStore.sol",
  "compiler": {
    "name": "solc",
    "version": "0.8.4+commit.c7e474f2.Emscripten.clang"
  },
  "schemaVersion": "3.4.16",
  "updatedAt": "2025-03-18T19:09:29.176Z",
  "networkType": "ethereum",
  "devdoc": {
    "kind": "dev",
    "methods": {},
    "version": 1
  },
  "userdoc": {
    "kind": "user",
    "methods": {},
    "version": 1
  }
}